{
  "contractName": "NewUniverse",
  "abi": [
    {
      "constant": true,
      "inputs": [],
      "name": "soldiersCount",
      "outputs": [
        {
          "name": "",
          "type": "uint256"
        }
      ],
      "payable": false,
      "stateMutability": "view",
      "type": "function"
    },
    {
      "constant": true,
      "inputs": [
        {
          "name": "",
          "type": "uint256"
        }
      ],
      "name": "soldiers",
      "outputs": [
        {
          "name": "id",
          "type": "uint256"
        },
        {
          "name": "name",
          "type": "string"
        },
        {
          "name": "class",
          "type": "string"
        },
        {
          "name": "level",
          "type": "uint256"
        },
        {
          "name": "location",
          "type": "string"
        }
      ],
      "payable": false,
      "stateMutability": "view",
      "type": "function"
    },
    {
      "constant": true,
      "inputs": [
        {
          "name": "",
          "type": "address"
        }
      ],
      "name": "travelers",
      "outputs": [
        {
          "name": "",
          "type": "bool"
        }
      ],
      "payable": false,
      "stateMutability": "view",
      "type": "function"
    },
    {
      "inputs": [],
      "payable": false,
      "stateMutability": "nonpayable",
      "type": "constructor"
    },
    {
      "anonymous": false,
      "inputs": [
        {
          "indexed": true,
          "name": "_soldierId",
          "type": "uint256"
        }
      ],
      "name": "traveledEvent",
      "type": "event"
    },
    {
      "constant": false,
      "inputs": [
        {
          "name": "_soldierId",
          "type": "uint256"
        }
      ],
      "name": "travel",
      "outputs": [],
      "payable": false,
      "stateMutability": "nonpayable",
      "type": "function"
    }
  ],
  "bytecode": "0x608060405234801561001057600080fd5b506100cc6040805190810160405280600781526020017f4175677573746f000000000000000000000000000000000000000000000000008152506040805190810160405280600981526020017f47756572726569726f000000000000000000000000000000000000000000000081525060666040805190810160405280600d81526020017f506c616e65746120546572726100000000000000000000000000000000000000815250610302640100000000026401000000009004565b6101876040805190810160405280600581526020017f4b68616c790000000000000000000000000000000000000000000000000000008152506040805190810160405280600e81526020017f4573706972697475616c6973746100000000000000000000000000000000000081525060696040805190810160405280600d81526020017f506c616e65746120546572726100000000000000000000000000000000000000815250610302640100000000026401000000009004565b6102426040805190810160405280600581526020017f4b617473750000000000000000000000000000000000000000000000000000008152506040805190810160405280600881526020017f417271756569726f00000000000000000000000000000000000000000000000081525060656040805190810160405280600d81526020017f506c616e65746120546572726100000000000000000000000000000000000000815250610302640100000000026401000000009004565b6102fd6040805190810160405280600481526020017f50656b65000000000000000000000000000000000000000000000000000000008152506040805190810160405280600b81526020017f4d657263656ec3a172696f00000000000000000000000000000000000000000081525060666040805190810160405280600d81526020017f506c616e65746120546572726100000000000000000000000000000000000000815250610302640100000000026401000000009004565b61046b565b60026000815480929190600101919050555060a06040519081016040528060025481526020018581526020018481526020018381526020018281525060008060025481526020019081526020016000206000820151816000015560208201518160010190805190602001906103789291906103c6565b5060408201518160020190805190602001906103959291906103c6565b506060820151816003015560808201518160040190805190602001906103bc9291906103c6565b5090505050505050565b828054600181600116156101000203166002900490600052602060002090601f016020900481019282601f1061040757805160ff1916838001178555610435565b82800160010185558215610435579182015b82811115610434578251825591602001919060010190610419565b5b5090506104429190610446565b5090565b61046891905b8082111561046457600081600090555060010161044c565b5090565b90565b6106f78061047a6000396000f300608060405260043610610062576000357c0100000000000000000000000000000000000000000000000000000000900463ffffffff1680632a47a94514610067578063941073c114610094578063b909b68e146100bf578063ff1f522c1461024b575b600080fd5b34801561007357600080fd5b50610092600480360381019080803590602001909291905050506102a6565b005b3480156100a057600080fd5b506100a9610402565b6040518082815260200191505060405180910390f35b3480156100cb57600080fd5b506100ea60048036038101908080359060200190929190505050610408565b60405180868152602001806020018060200185815260200180602001848103845288818151815260200191508051906020019080838360005b8381101561013e578082015181840152602081019050610123565b50505050905090810190601f16801561016b5780820380516001836020036101000a031916815260200191505b50848103835287818151815260200191508051906020019080838360005b838110156101a4578082015181840152602081019050610189565b50505050905090810190601f1680156101d15780820380516001836020036101000a031916815260200191505b50848103825285818151815260200191508051906020019080838360005b8381101561020a5780820151818401526020810190506101ef565b50505050905090810190601f1680156102375780820380516001836020036101000a031916815260200191505b509850505050505050505060405180910390f35b34801561025757600080fd5b5061028c600480360381019080803573ffffffffffffffffffffffffffffffffffffffff169060200190929190505050610606565b604051808215151515815260200191505060405180910390f35b600160003373ffffffffffffffffffffffffffffffffffffffff1673ffffffffffffffffffffffffffffffffffffffff16815260200190815260200160002060009054906101000a900460ff161515156102ff57600080fd5b60008111801561031157506002548111155b151561031c57600080fd5b60018060003373ffffffffffffffffffffffffffffffffffffffff1673ffffffffffffffffffffffffffffffffffffffff16815260200190815260200160002060006101000a81548160ff0219169083151502179055506040805190810160405280600c81526020017f4e657720556e697665727365000000000000000000000000000000000000000081525060008083815260200190815260200160002060040190805190602001906103d1929190610626565b50807fa80caae31d059ef06c43b6d70868eebf0a298f1515b8f25fdadbbc628cc1ffd460405160405180910390a250565b60025481565b6000602052806000526040600020600091509050806000015490806001018054600181600116156101000203166002900480601f0160208091040260200160405190810160405280929190818152602001828054600181600116156101000203166002900480156104ba5780601f1061048f576101008083540402835291602001916104ba565b820191906000526020600020905b81548152906001019060200180831161049d57829003601f168201915b505050505090806002018054600181600116156101000203166002900480601f0160208091040260200160405190810160405280929190818152602001828054600181600116156101000203166002900480156105585780601f1061052d57610100808354040283529160200191610558565b820191906000526020600020905b81548152906001019060200180831161053b57829003601f168201915b505050505090806003015490806004018054600181600116156101000203166002900480601f0160208091040260200160405190810160405280929190818152602001828054600181600116156101000203166002900480156105fc5780601f106105d1576101008083540402835291602001916105fc565b820191906000526020600020905b8154815290600101906020018083116105df57829003601f168201915b5050505050905085565b60016020528060005260406000206000915054906101000a900460ff1681565b828054600181600116156101000203166002900490600052602060002090601f016020900481019282601f1061066757805160ff1916838001178555610695565b82800160010185558215610695579182015b82811115610694578251825591602001919060010190610679565b5b5090506106a291906106a6565b5090565b6106c891905b808211156106c45760008160009055506001016106ac565b5090565b905600a165627a7a7230582084018c626ccd39b27bb0e3e22e6495050afda89a5d0d34de37c521acc520110e0029",
  "source": "/**\r\n * NewUniverse é responsável por armazenar os soldados que estão para realizar\r\n * a viagem ou que já realizaram a viagem, e controlar as permissões de viagem.\r\n * \r\n * Autor: Augusto Rodrigues\r\n * Versão: 0.0.1\r\n */\r\n\r\n//solium-disable linebreak-style\r\npragma solidity ^0.4.24;\r\n\r\ncontract NewUniverse {\r\n    // Modelo de soldado\r\n    struct Soldier {\r\n        uint id;\r\n        string name;\r\n        string class;\r\n        uint level;\r\n        string location;\r\n    }\r\n\r\n    event traveledEvent(uint indexed _soldierId);\r\n\r\n    // Mapeia informações dos soldados\r\n    mapping(uint => Soldier) public soldiers;\r\n\r\n    // Mapeia contas de soldados que já foram tranferidos\r\n    mapping(address => bool) public travelers;\r\n\r\n    // Armazena quantidade de soldados\r\n    uint public soldiersCount;\r\n\r\n    // Construtor\r\n    function NewUniverse() public {\r\n        addSoldier(\"Augusto\", \"Guerreiro\", 102, \"Planeta Terra\");\r\n        addSoldier(\"Khaly\", \"Espiritualista\", 105, \"Planeta Terra\");\r\n        addSoldier(\"Katsu\", \"Arqueiro\", 101, \"Planeta Terra\");\r\n        addSoldier(\"Peke\", \"Mercenário\", 102, \"Planeta Terra\");\r\n    \r\n    }\r\n\r\n    function addSoldier(string _name, string _class, uint _level, string _location) private {\r\n        soldiersCount++;\r\n        soldiers[soldiersCount] = Soldier(soldiersCount, _name, _class, _level, _location);\r\n    }\r\n\r\n    function travel(uint _soldierId) public {\r\n        // Requer que a conta que está executando a viagem já não tenha feito a viagem ainda\r\n        require(!travelers[msg.sender]);\r\n\r\n        // Requer que o soldado esteja cadastrado\r\n        require(_soldierId > 0 && _soldierId <= soldiersCount);\r\n\r\n        // O soldado realiza a viagem\r\n        travelers[msg.sender] = true;\r\n\r\n        // Altera a localização depois de tealizar a viagem\r\n        soldiers[_soldierId].location = \"New Universe\";\r\n\r\n        // Evento é ativado quando o soldado realiza a viagem para o novo universo\r\n        emit traveledEvent(_soldierId);\r\n    }\r\n}",
  "sourcePath": "C:\\nodeprojects\\multiverse-pass\\contracts\\NewUniverse.sol",
  "compiler": {
    "name": "solc",
    "version": "0.4.24+commit.e67f0147.Emscripten.clang"
  },
  "schemaVersion": "2.0.1",
  "updatedAt": "2018-11-05T14:44:01.782Z"
}