{
  "contractName": "Soldiers",
  "abi": [
    {
      "constant": true,
      "inputs": [],
      "name": "soldiersCount",
      "outputs": [
        {
          "name": "",
          "type": "uint256"
        }
      ],
      "payable": false,
      "stateMutability": "view",
      "type": "function"
    },
    {
      "constant": true,
      "inputs": [
        {
          "name": "",
          "type": "uint256"
        }
      ],
      "name": "soldiers",
      "outputs": [
        {
          "name": "id",
          "type": "uint256"
        },
        {
          "name": "name",
          "type": "string"
        },
        {
          "name": "class",
          "type": "string"
        },
        {
          "name": "level",
          "type": "uint256"
        }
      ],
      "payable": false,
      "stateMutability": "view",
      "type": "function"
    },
    {
      "inputs": [],
      "payable": false,
      "stateMutability": "nonpayable",
      "type": "constructor"
    }
  ],
  "bytecode": "0x608060405234801561001057600080fd5b506100966040805190810160405280600781526020017f4175677573746f000000000000000000000000000000000000000000000000008152506040805190810160405280600981526020017f47756572726569726f0000000000000000000000000000000000000000000000815250606661009b640100000000026401000000009004565b6101e0565b600160008154809291906001019190505550608060405190810160405280600154815260200184815260200183815260200182815250600080600154815260200190815260200160002060008201518160000155602082015181600101908051906020019061010b92919061013b565b50604082015181600201908051906020019061012892919061013b565b5060608201518160030155905050505050565b828054600181600116156101000203166002900490600052602060002090601f016020900481019282601f1061017c57805160ff19168380011785556101aa565b828001600101855582156101aa579182015b828111156101a957825182559160200191906001019061018e565b5b5090506101b791906101bb565b5090565b6101dd91905b808211156101d95760008160009055506001016101c1565b5090565b90565b61032e806101ef6000396000f30060806040526004361061004c576000357c0100000000000000000000000000000000000000000000000000000000900463ffffffff168063941073c114610051578063b909b68e1461007c575b600080fd5b34801561005d57600080fd5b5061006661019c565b6040518082815260200191505060405180910390f35b34801561008857600080fd5b506100a7600480360381019080803590602001909291905050506101a2565b604051808581526020018060200180602001848152602001838103835286818151815260200191508051906020019080838360005b838110156100f75780820151818401526020810190506100dc565b50505050905090810190601f1680156101245780820380516001836020036101000a031916815260200191505b50838103825285818151815260200191508051906020019080838360005b8381101561015d578082015181840152602081019050610142565b50505050905090810190601f16801561018a5780820380516001836020036101000a031916815260200191505b50965050505050505060405180910390f35b60015481565b6000602052806000526040600020600091509050806000015490806001018054600181600116156101000203166002900480601f0160208091040260200160405190810160405280929190818152602001828054600181600116156101000203166002900480156102545780601f1061022957610100808354040283529160200191610254565b820191906000526020600020905b81548152906001019060200180831161023757829003601f168201915b505050505090806002018054600181600116156101000203166002900480601f0160208091040260200160405190810160405280929190818152602001828054600181600116156101000203166002900480156102f25780601f106102c7576101008083540402835291602001916102f2565b820191906000526020600020905b8154815290600101906020018083116102d557829003601f168201915b50505050509080600301549050845600a165627a7a72305820cc44e8ed127d372666dcff772deeae9a0677ad50f764eeab05f3bb1ced283a6d0029",
  "source": "//solium-disable linebreak-style\r\npragma solidity ^0.4.24;\r\n\r\ncontract Soldiers {\r\n    // Modelo de soldado\r\n    struct Soldier {\r\n        uint id;\r\n        string name;\r\n        string class;\r\n        uint level;\r\n    }\r\n\r\n    // Armazena candidatos\r\n\r\n    // Mapeia informações dos soldados\r\n    mapping(uint => Soldier) public soldiers;\r\n\r\n    // Armazena quantidade de soldados\r\n    uint public soldiersCount;\r\n\r\n    // Construtor\r\n    constructor() public {\r\n        addSoldier(\"Augusto\", \"Guerreiro\", 102);\r\n    \r\n    }\r\n\r\n    function addSoldier(string _name, string _class, uint _level) private {\r\n        soldiersCount++;\r\n        soldiers[soldiersCount] = Soldier(soldiersCount, _name, _class, _level); \r\n    }\r\n}",
  "sourcePath": "C:\\nodeprojects\\multiverse-pass\\contracts\\Soldier.sol",
  "compiler": {
    "name": "solc",
    "version": "0.4.24+commit.e67f0147.Emscripten.clang"
  },
  "schemaVersion": "2.0.1",
  "updatedAt": "2018-11-05T03:38:59.572Z"
}