{
  "contractName": "Soldier",
  "abi": [
    {
      "constant": true,
      "inputs": [],
      "name": "soldier",
      "outputs": [
        {
          "name": "",
          "type": "string"
        }
      ],
      "payable": false,
      "stateMutability": "view",
      "type": "function"
    },
    {
      "inputs": [],
      "payable": false,
      "stateMutability": "nonpayable",
      "type": "constructor"
    }
  ],
  "bytecode": "0x608060405234801561001057600080fd5b506040805190810160405280600881526020017f536f6c6461646f310000000000000000000000000000000000000000000000008152506000908051906020019061005c929190610062565b50610107565b828054600181600116156101000203166002900490600052602060002090601f016020900481019282601f106100a357805160ff19168380011785556100d1565b828001600101855582156100d1579182015b828111156100d05782518255916020019190600101906100b5565b5b5090506100de91906100e2565b5090565b61010491905b808211156101005760008160009055506001016100e8565b5090565b90565b6101a0806101166000396000f300608060405260043610610041576000357c0100000000000000000000000000000000000000000000000000000000900463ffffffff16806319996fd114610046575b600080fd5b34801561005257600080fd5b5061005b6100d6565b6040518080602001828103825283818151815260200191508051906020019080838360005b8381101561009b578082015181840152602081019050610080565b50505050905090810190601f1680156100c85780820380516001836020036101000a031916815260200191505b509250505060405180910390f35b60008054600181600116156101000203166002900480601f01602080910402602001604051908101604052809291908181526020018280546001816001161561010002031660029004801561016c5780601f106101415761010080835404028352916020019161016c565b820191906000526020600020905b81548152906001019060200180831161014f57829003601f168201915b5050505050815600a165627a7a7230582098f9f8566fb95f70dcbda3e9940a43d6ecfeb33f03269c218dd4522a08b21d4d0029",
  "source": "//solium-disable linebreak-style\r\npragma solidity ^0.4.24;\r\n\r\ncontract Soldier {\r\n    // Armazena soldado\r\n    string public soldier;\r\n    // Lê informações do soldado\r\n    // Construtor\r\n\r\n    function Soldier() public {\r\n        soldier = \"Soldado1\";\r\n    }\r\n}",
  "sourcePath": "C:\\nodeprojects\\multiverse-pass\\contracts\\Soldier.sol",
  "compiler": {
    "name": "solc",
    "version": "0.4.24+commit.e67f0147.Emscripten.clang"
  },
  "schemaVersion": "2.0.1",
  "updatedAt": "2018-11-05T03:59:18.240Z"
}